{
  "contractName": "PredictionMarket",
  "abi": [
    {
      "inputs": [
        {
          "internalType": "address payable",
          "name": "_oracle",
          "type": "address"
        }
      ],
      "stateMutability": "nonpayable",
      "type": "constructor"
    },
    {
      "inputs": [
        {
          "internalType": "enum PredictionMarket.Side",
          "name": "",
          "type": "uint8"
        }
      ],
      "name": "bets",
      "outputs": [
        {
          "internalType": "uint256",
          "name": "",
          "type": "uint256"
        }
      ],
      "stateMutability": "view",
      "type": "function"
    },
    {
      "inputs": [
        {
          "internalType": "address",
          "name": "",
          "type": "address"
        },
        {
          "internalType": "enum PredictionMarket.Side",
          "name": "",
          "type": "uint8"
        }
      ],
      "name": "betsPerGambler",
      "outputs": [
        {
          "internalType": "uint256",
          "name": "",
          "type": "uint256"
        }
      ],
      "stateMutability": "view",
      "type": "function"
    },
    {
      "inputs": [],
      "name": "electionFinished",
      "outputs": [
        {
          "internalType": "bool",
          "name": "",
          "type": "bool"
        }
      ],
      "stateMutability": "view",
      "type": "function"
    },
    {
      "inputs": [],
      "name": "oracle",
      "outputs": [
        {
          "internalType": "address payable",
          "name": "",
          "type": "address"
        }
      ],
      "stateMutability": "view",
      "type": "function"
    },
    {
      "inputs": [],
      "name": "result",
      "outputs": [
        {
          "internalType": "enum PredictionMarket.Side",
          "name": "winner",
          "type": "uint8"
        },
        {
          "internalType": "enum PredictionMarket.Side",
          "name": "loser",
          "type": "uint8"
        }
      ],
      "stateMutability": "view",
      "type": "function"
    },
    {
      "inputs": [
        {
          "internalType": "enum PredictionMarket.Side",
          "name": "_side",
          "type": "uint8"
        }
      ],
      "name": "placeBet",
      "outputs": [],
      "stateMutability": "payable",
      "type": "function"
    },
    {
      "inputs": [],
      "name": "withdrawGain",
      "outputs": [],
      "stateMutability": "nonpayable",
      "type": "function"
    },
    {
      "inputs": [
        {
          "internalType": "enum PredictionMarket.Side",
          "name": "_winner",
          "type": "uint8"
        },
        {
          "internalType": "enum PredictionMarket.Side",
          "name": "_loser",
          "type": "uint8"
        }
      ],
      "name": "reportResult",
      "outputs": [],
      "stateMutability": "nonpayable",
      "type": "function"
    }
  ],
  "bytecode": "0x608060405234801561001057600080fd5b50604051610a0b380380610a0b8339818101604052602081101561003357600080fd5b810190808051906020019092919050505080600460006101000a81548173ffffffffffffffffffffffffffffffffffffffff021916908373ffffffffffffffffffffffffffffffffffffffff16021790555050610976806100956000396000f3fe60806040526004361061007b5760003560e01c80637dc0d1d01161004e5780637dc0d1d01461015b5780637e0ecc001461019c5780639d5a3739146101ee578063beab6e7e146102605761007b565b80632b539c861461008057806343046844146100975780634ec942b7146100c85780636537214714610113575b600080fd5b34801561008c57600080fd5b5061009561028d565b005b6100c6600480360360208110156100ad57600080fd5b81019080803560ff1690602001909291905050506105b3565b005b3480156100d457600080fd5b50610111600480360360408110156100eb57600080fd5b81019080803560ff169060200190929190803560ff1690602001909291905050506106ea565b005b34801561011f57600080fd5b5061012861089e565b6040518083600181111561013857fe5b815260200182600181111561014957fe5b81526020019250505060405180910390f35b34801561016757600080fd5b506101706108ca565b604051808273ffffffffffffffffffffffffffffffffffffffff16815260200191505060405180910390f35b3480156101a857600080fd5b506101d8600480360360208110156101bf57600080fd5b81019080803560ff1690602001909291905050506108f0565b6040518082815260200191505060405180910390f35b3480156101fa57600080fd5b5061024a6004803603604081101561021157600080fd5b81019080803573ffffffffffffffffffffffffffffffffffffffff169060200190929190803560ff169060200190929190505050610908565b6040518082815260200191505060405180910390f35b34801561026c57600080fd5b5061027561092d565b60405180821515815260200191505060405180910390f35b6000600360003373ffffffffffffffffffffffffffffffffffffffff1673ffffffffffffffffffffffffffffffffffffffff16815260200190815260200160002060008060000160009054906101000a900460ff1660018111156102ed57fe5b60018111156102f857fe5b81526020019081526020016000205490506000811161037f576040517f08c379a000000000000000000000000000000000000000000000000000000000815260040180806020018281038252601f8152602001807f596f7520646f206e6f74206861766520616e792077696e6e696e67206265740081525060200191505060405180910390fd5b60018060006101000a81548160ff021916908315150217905561040a576040517f08c379a00000000000000000000000000000000000000000000000000000000081526004018080602001828103825260158152602001807f656c656374696f6e206e6f742066696e6973686564000000000000000000000081525060200191505060405180910390fd5b6000600260008060000160009054906101000a900460ff16600181111561042d57fe5b600181111561043857fe5b81526020019081526020016000205482600260008060000160019054906101000a900460ff16600181111561046957fe5b600181111561047457fe5b815260200190815260200160002054028161048b57fe5b04820190506000600360003373ffffffffffffffffffffffffffffffffffffffff1673ffffffffffffffffffffffffffffffffffffffff16815260200190815260200160002060008060018111156104df57fe5b60018111156104ea57fe5b8152602001908152602001600020819055506000600360003373ffffffffffffffffffffffffffffffffffffffff1673ffffffffffffffffffffffffffffffffffffffff168152602001908152602001600020600060018081111561054b57fe5b600181111561055657fe5b8152602001908152602001600020819055503373ffffffffffffffffffffffffffffffffffffffff166108fc829081150290604051600060405180830381858888f193505050501580156105ae573d6000803e3d6000fd5b505050565b60001515600160009054906101000a900460ff1615151461063c576040517f08c379a00000000000000000000000000000000000000000000000000000000081526004018080602001828103825260148152602001807f656c656374696f6e2069732066696e697368656400000000000000000000000081525060200191505060405180910390fd5b346002600083600181111561064d57fe5b600181111561065857fe5b81526020019081526020016000206000828254019250508190555034600360003373ffffffffffffffffffffffffffffffffffffffff1673ffffffffffffffffffffffffffffffffffffffff16815260200190815260200160002060008360018111156106c157fe5b60018111156106cc57fe5b81526020019081526020016000206000828254019250508190555050565b3373ffffffffffffffffffffffffffffffffffffffff16600460009054906101000a900473ffffffffffffffffffffffffffffffffffffffff1673ffffffffffffffffffffffffffffffffffffffff16146107ad576040517f08c379a000000000000000000000000000000000000000000000000000000000815260040180806020018281038252601d8152602001807f4f6e6c79204f7261636c6520616c6c6f77656420746f207265706f727400000081525060200191505060405180910390fd5b60001515600160009054906101000a900460ff16151514610836576040517f08c379a00000000000000000000000000000000000000000000000000000000081526004018080602001828103825260148152602001807f456c656374696f6e2069732066696e697368656400000000000000000000000081525060200191505060405180910390fd5b816000800160006101000a81548160ff0219169083600181111561085657fe5b0217905550806000800160016101000a81548160ff0219169083600181111561087b57fe5b021790555060018060006101000a81548160ff0219169083151502179055505050565b60008060000160009054906101000a900460ff16908060000160019054906101000a900460ff16905082565b600460009054906101000a900473ffffffffffffffffffffffffffffffffffffffff1681565b60026020528060005260406000206000915090505481565b6003602052816000526040600020602052806000526040600020600091509150505481565b600160009054906101000a900460ff168156fea26469706673582212208894364fc00edcea2aa412c5d22f33e7af1b826f4779b1b2ac3d1be1710539ff64736f6c63430007030033",
  "immutableReferences": {},
  "source": "pragma solidity >=0.7.3;\n\ncontract PredictionMarket {\n    enum Side { Biden, Trump }\n    struct Result {\n        Side winner;\n        Side loser;\n    }\n    Result public result;\n    bool public electionFinished;\n\n    mapping(Side => uint) public bets;\n    mapping(address => mapping(Side => uint)) public betsPerGambler;\n    address payable public oracle;\n\n    constructor(address payable _oracle) {\n        oracle = _oracle;\n    }\n\n\n\n    function placeBet(Side _side) external payable {\n        require(electionFinished == false, 'election is finished');\n        bets[_side] += msg.value;\n        betsPerGambler[msg.sender][_side] += msg.value;\n    }\n\n    function withdrawGain() external {\n        uint gamblerBet = betsPerGambler[msg.sender][result.winner];\n        require(gamblerBet > 0, 'You do not have any winning bet');\n        require(electionFinished = true, 'election not finished');\n        uint gain = gamblerBet + bets[result.loser] * gamblerBet / bets[result.winner];\n        betsPerGambler[msg.sender][Side.Biden] = 0;\n        betsPerGambler[msg.sender][Side.Trump] = 0;\n        payable(msg.sender).transfer(gain);\n    }\n\n    function reportResult(Side _winner, Side _loser) external {\n        require(oracle == msg.sender, 'Only Oracle allowed to report');\n        require(electionFinished == false, 'Election is finished');\n        result.winner = _winner;\n        result.loser = _loser;\n        electionFinished = true;\n    }\n\n}",
  "sourcePath": "/home/abdou/Documents/Prediction-market-us-election/contracts/PredictionMarket.sol",
  "compiler": {
    "name": "solc",
    "version": "0.7.3+commit.9bfce1f6.Emscripten.clang"
  },
  "schemaVersion": "3.4.3",
  "updatedAt": "2021-09-08T12:42:02.048Z",
  "devdoc": {
    "kind": "dev",
    "methods": {},
    "version": 1
  },
  "userdoc": {
    "kind": "user",
    "methods": {},
    "version": 1
  }
}